{"abi":[{"type":"constructor","inputs":[{"name":"_usdc","type":"address","internalType":"contract IERC20"},{"name":"_gateway","type":"address","internalType":"address"}],"stateMutability":"nonpayable"},{"type":"function","name":"BPS_DENOMINATOR","inputs":[],"outputs":[{"name":"","type":"uint256","internalType":"uint256"}],"stateMutability":"view"},{"type":"function","name":"MAX_FEE_BPS","inputs":[],"outputs":[{"name":"","type":"uint96","internalType":"uint96"}],"stateMutability":"view"},{"type":"function","name":"PERMIT2","inputs":[],"outputs":[{"name":"","type":"address","internalType":"address"}],"stateMutability":"view"},{"type":"function","name":"batchSettle","inputs":[{"name":"users","type":"address[]","internalType":"address[]"},{"name":"vendors","type":"address[]","internalType":"address[]"},{"name":"amounts","type":"uint256[]","internalType":"uint256[]"}],"outputs":[],"stateMutability":"nonpayable"},{"type":"function","name":"canUserSpend","inputs":[{"name":"user","type":"address","internalType":"address"},{"name":"amount","type":"uint256","internalType":"uint256"}],"outputs":[{"name":"","type":"bool","internalType":"bool"}],"stateMutability":"view"},{"type":"function","name":"deposit","inputs":[{"name":"amount","type":"uint256","internalType":"uint256"},{"name":"spendingLimit","type":"uint256","internalType":"uint256"}],"outputs":[],"stateMutability":"nonpayable"},{"type":"function","name":"depositWithPermit","inputs":[{"name":"user","type":"address","internalType":"address"},{"name":"amount","type":"uint256","internalType":"uint256"},{"name":"spendingLimit","type":"uint256","internalType":"uint256"},{"name":"deadline","type":"uint256","internalType":"uint256"},{"name":"v","type":"uint8","internalType":"uint8"},{"name":"r","type":"bytes32","internalType":"bytes32"},{"name":"s","type":"bytes32","internalType":"bytes32"}],"outputs":[],"stateMutability":"nonpayable"},{"type":"function","name":"depositWithPermit2","inputs":[{"name":"user","type":"address","internalType":"address"},{"name":"amount","type":"uint256","internalType":"uint256"},{"name":"spendingLimit","type":"uint256","internalType":"uint256"},{"name":"permit","type":"tuple","internalType":"struct IPermit2.PermitTransferFrom","components":[{"name":"permitted","type":"tuple","internalType":"struct IPermit2.TokenPermissions","components":[{"name":"token","type":"address","internalType":"address"},{"name":"amount","type":"uint256","internalType":"uint256"}]},{"name":"nonce","type":"uint256","internalType":"uint256"},{"name":"deadline","type":"uint256","internalType":"uint256"}]},{"name":"transferDetails","type":"tuple","internalType":"struct IPermit2.SignatureTransferDetails","components":[{"name":"to","type":"address","internalType":"address"},{"name":"requestedAmount","type":"uint256","internalType":"uint256"}]},{"name":"signature","type":"bytes","internalType":"bytes"}],"outputs":[],"stateMutability":"nonpayable"},{"type":"function","name":"feeBps","inputs":[],"outputs":[{"name":"","type":"uint96","internalType":"uint96"}],"stateMutability":"view"},{"type":"function","name":"gateway","inputs":[],"outputs":[{"name":"","type":"address","internalType":"address"}],"stateMutability":"view"},{"type":"function","name":"owner","inputs":[],"outputs":[{"name":"","type":"address","internalType":"address"}],"stateMutability":"view"},{"type":"function","name":"protocolFees","inputs":[],"outputs":[{"name":"","type":"uint256","internalType":"uint256"}],"stateMutability":"view"},{"type":"function","name":"setFeeBps","inputs":[{"name":"newFeeBps","type":"uint96","internalType":"uint96"}],"outputs":[],"stateMutability":"nonpayable"},{"type":"function","name":"setGateway","inputs":[{"name":"newGateway","type":"address","internalType":"address"}],"outputs":[],"stateMutability":"nonpayable"},{"type":"function","name":"setSettlementsPaused","inputs":[{"name":"paused","type":"bool","internalType":"bool"}],"outputs":[],"stateMutability":"nonpayable"},{"type":"function","name":"setSpendingLimit","inputs":[{"name":"newLimit","type":"uint256","internalType":"uint256"}],"outputs":[],"stateMutability":"nonpayable"},{"type":"function","name":"settlementsPaused","inputs":[],"outputs":[{"name":"","type":"bool","internalType":"bool"}],"stateMutability":"view"},{"type":"function","name":"totalReserves","inputs":[],"outputs":[{"name":"","type":"uint256","internalType":"uint256"}],"stateMutability":"view"},{"type":"function","name":"transferOwnership","inputs":[{"name":"newOwner","type":"address","internalType":"address"}],"outputs":[],"stateMutability":"nonpayable"},{"type":"function","name":"usdc","inputs":[],"outputs":[{"name":"","type":"address","internalType":"contract IERC20"}],"stateMutability":"view"},{"type":"function","name":"userDeposits","inputs":[{"name":"","type":"address","internalType":"address"}],"outputs":[{"name":"","type":"uint256","internalType":"uint256"}],"stateMutability":"view"},{"type":"function","name":"userSpendingLimit","inputs":[{"name":"","type":"address","internalType":"address"}],"outputs":[{"name":"","type":"uint256","internalType":"uint256"}],"stateMutability":"view"},{"type":"function","name":"vendorPending","inputs":[{"name":"","type":"address","internalType":"address"}],"outputs":[{"name":"","type":"uint256","internalType":"uint256"}],"stateMutability":"view"},{"type":"function","name":"withdrawProtocolFees","inputs":[{"name":"amount","type":"uint256","internalType":"uint256"}],"outputs":[],"stateMutability":"nonpayable"},{"type":"function","name":"withdrawUser","inputs":[{"name":"amount","type":"uint256","internalType":"uint256"}],"outputs":[],"stateMutability":"nonpayable"},{"type":"function","name":"withdrawVendor","inputs":[{"name":"amount","type":"uint256","internalType":"uint256"}],"outputs":[],"stateMutability":"nonpayable"},{"type":"event","name":"FeeUpdated","inputs":[{"name":"feeBps","type":"uint96","indexed":false,"internalType":"uint96"}],"anonymous":false},{"type":"event","name":"GatewayUpdated","inputs":[{"name":"newGateway","type":"address","indexed":true,"internalType":"address"}],"anonymous":false},{"type":"event","name":"OwnershipTransferred","inputs":[{"name":"previousOwner","type":"address","indexed":true,"internalType":"address"},{"name":"newOwner","type":"address","indexed":true,"internalType":"address"}],"anonymous":false},{"type":"event","name":"ProtocolFeeWithdrawal","inputs":[{"name":"recipient","type":"address","indexed":true,"internalType":"address"},{"name":"amount","type":"uint256","indexed":false,"internalType":"uint256"}],"anonymous":false},{"type":"event","name":"Settlement","inputs":[{"name":"user","type":"address","indexed":true,"internalType":"address"},{"name":"vendor","type":"address","indexed":true,"internalType":"address"},{"name":"amount","type":"uint256","indexed":false,"internalType":"uint256"}],"anonymous":false},{"type":"event","name":"SettlementsPausedUpdated","inputs":[{"name":"paused","type":"bool","indexed":false,"internalType":"bool"}],"anonymous":false},{"type":"event","name":"SpendingLimitUpdated","inputs":[{"name":"user","type":"address","indexed":true,"internalType":"address"},{"name":"newLimit","type":"uint256","indexed":false,"internalType":"uint256"}],"anonymous":false},{"type":"event","name":"UserDeposit","inputs":[{"name":"user","type":"address","indexed":true,"internalType":"address"},{"name":"netAmount","type":"uint256","indexed":false,"internalType":"uint256"},{"name":"fee","type":"uint256","indexed":false,"internalType":"uint256"},{"name":"spendingLimit","type":"uint256","indexed":false,"internalType":"uint256"}],"anonymous":false},{"type":"event","name":"UserWithdrawal","inputs":[{"name":"user","type":"address","indexed":true,"internalType":"address"},{"name":"amount","type":"uint256","indexed":false,"internalType":"uint256"}],"anonymous":false},{"type":"event","name":"VendorWithdrawal","inputs":[{"name":"vendor","type":"address","indexed":true,"internalType":"address"},{"name":"amount","type":"uint256","indexed":false,"internalType":"uint256"}],"anonymous":false},{"type":"error","name":"ExceedsSpendingLimit","inputs":[]},{"type":"error","name":"InsufficientBalance","inputs":[]},{"type":"error","name":"InvalidAddress","inputs":[]},{"type":"error","name":"InvalidAmount","inputs":[]},{"type":"error","name":"Reentrancy","inputs":[]},{"type":"error","name":"SafeERC20FailedOperation","inputs":[]},{"type":"error","name":"SettlementsPaused","inputs":[]},{"type":"error","name":"Unauthorized","inputs":[]}],"bytecode":{"object":"0x60a060405260018055606460035f6101000a8154816bffffffffffffffffffffffff02191690836bffffffffffffffffffffffff160217905550348015610044575f5ffd5b50604051612eb9380380612eb9833981810160405281019061006691906102b1565b33805f5f6101000a81548173ffffffffffffffffffffffffffffffffffffffff021916908373ffffffffffffffffffffffffffffffffffffffff1602179055508073ffffffffffffffffffffffffffffffffffffffff165f73ffffffffffffffffffffffffffffffffffffffff167f8be0079c531659141344cd1fd0a4f28419497f9722a3daafe3b4186f6b6457e060405160405180910390a3505f73ffffffffffffffffffffffffffffffffffffffff168273ffffffffffffffffffffffffffffffffffffffff16148061016657505f73ffffffffffffffffffffffffffffffffffffffff168173ffffffffffffffffffffffffffffffffffffffff16145b1561019d576040517fe6c4247b00000000000000000000000000000000000000000000000000000000815260040160405180910390fd5b8173ffffffffffffffffffffffffffffffffffffffff1660808173ffffffffffffffffffffffffffffffffffffffff16815250508060025f6101000a81548173ffffffffffffffffffffffffffffffffffffffff021916908373ffffffffffffffffffffffffffffffffffffffff16021790555050506102ef565b5f5ffd5b5f73ffffffffffffffffffffffffffffffffffffffff82169050919050565b5f6102458261021c565b9050919050565b5f6102568261023b565b9050919050565b6102668161024c565b8114610270575f5ffd5b50565b5f815190506102818161025d565b92915050565b6102908161023b565b811461029a575f5ffd5b50565b5f815190506102ab81610287565b92915050565b5f5f604083850312156102c7576102c6610218565b5b5f6102d485828601610273565b92505060206102e58582860161029d565b9150509250929050565b608051612b7a61033f5f395f81816106020152818161069a015281816106f50152818161089401528181610cfa01528181610e96015281816111a10152818161160d01526116fb0152612b7a5ff3fe608060405234801561000f575f5ffd5b506004361061018c575f3560e01c80638da5cb5b116100dc578063d55be8c611610095578063e1a452181161006f578063e1a4521814610446578063e2bbb15814610464578063f2fde38b14610480578063f94e47fc1461049c5761018c565b8063d55be8c6146103dc578063d71e5097146103fa578063dab70e3c1461042a5761018c565b80638da5cb5b1461032e5780638f840ddd1461034c57806390646b4a1461036a57806394cce9aa14610386578063b7f1564e146103a2578063cc1deaa0146103be5761018c565b80633e413bee116101495780637698bc53116101235780637698bc53146102aa5780637a793afa146102da5780638674c426146102f6578063867fc1d8146103125761018c565b80633e413bee146102525780634f449138146102705780636afdd8501461028c5761018c565b80630ba36dcd14610190578063116191b6146101c05780631ad8b03b146101de57806324a9d853146101fc5780633c9607f61461021a5780633d935d9e14610236575b5f5ffd5b6101aa60048036038101906101a59190611f85565b6104cc565b6040516101b79190611fc8565b60405180910390f35b6101c86104e1565b6040516101d59190611ff0565b60405180910390f35b6101e6610506565b6040516101f39190611fc8565b60405180910390f35b61020461050c565b604051610211919061202f565b60405180910390f35b610234600480360381019061022f9190612072565b610529565b005b610250600480360381019061024b9190612106565b6105bc565b005b61025a6106f3565b60405161026791906121fe565b60405180910390f35b61028a60048036038101906102859190612072565b610717565b005b610294610950565b6040516102a19190611ff0565b60405180910390f35b6102c460048036038101906102bf9190612217565b610963565b6040516102d1919061226f565b60405180910390f35b6102f460048036038101906102ef919061233e565b6109f6565b005b610310600480360381019061030b9190612072565b610bac565b005b61032c60048036038101906103279190612418565b610d96565b005b610336610e6f565b6040516103439190611ff0565b60405180910390f35b610354610e93565b6040516103619190611fc8565b60405180910390f35b610384600480360381019061037f9190611f85565b610f31565b005b6103a0600480360381019061039b91906124d8565b6110a1565b005b6103bc60048036038101906103b791906125ae565b61134a565b005b6103c6611491565b6040516103d3919061226f565b60405180910390f35b6103e46114a4565b6040516103f1919061202f565b60405180910390f35b610414600480360381019061040f9190611f85565b6114aa565b6040516104219190611fc8565b60405180910390f35b610444600480360381019061043f9190612072565b6114bf565b005b61044e6116a9565b60405161045b9190611fc8565b60405180910390f35b61047e600480360381019061047991906125d9565b6116af565b005b61049a60048036038101906104959190611f85565b61174f565b005b6104b660048036038101906104b19190611f85565b6118f5565b6040516104c39190611fc8565b60405180910390f35b6004602052805f5260405f205f915090505481565b60025f9054906101000a900473ffffffffffffffffffffffffffffffffffffffff1681565b60075481565b60035f9054906101000a90046bffffffffffffffffffffffff1681565b8060055f3373ffffffffffffffffffffffffffffffffffffffff1673ffffffffffffffffffffffffffffffffffffffff1681526020019081526020015f20819055503373ffffffffffffffffffffffffffffffffffffffff167f776df4fafddc354619637d0d676de7026f8233114662c7f22e1a0e63eafcd429826040516105b19190611fc8565b60405180910390a250565b5f8614806105c957505f85145b15610600576040517f2c5211c600000000000000000000000000000000000000000000000000000000815260040160405180910390fd5b7f000000000000000000000000000000000000000000000000000000000000000073ffffffffffffffffffffffffffffffffffffffff1663d505accf883089888888886040518863ffffffff1660e01b81526004016106659796959493929190612635565b5f604051808303815f87803b15801561067c575f5ffd5b505af115801561068e573d5f5f3e3d5ffd5b505050506106df8730887f000000000000000000000000000000000000000000000000000000000000000073ffffffffffffffffffffffffffffffffffffffff1661190a909392919063ffffffff16565b6106ea878787611993565b50505050505050565b7f000000000000000000000000000000000000000000000000000000000000000081565b5f5f9054906101000a900473ffffffffffffffffffffffffffffffffffffffff1673ffffffffffffffffffffffffffffffffffffffff163373ffffffffffffffffffffffffffffffffffffffff161461079c576040517f82b4290000000000000000000000000000000000000000000000000000000000815260040160405180910390fd5b6002600154036107d8576040517fab143c0600000000000000000000000000000000000000000000000000000000815260040160405180910390fd5b60026001819055505f8103610819576040517f2c5211c600000000000000000000000000000000000000000000000000000000815260040160405180910390fd5b806007541015610855576040517ff4d678b800000000000000000000000000000000000000000000000000000000815260040160405180910390fd5b8060075f82825461086691906126cf565b925050819055506108d85f5f9054906101000a900473ffffffffffffffffffffffffffffffffffffffff16827f000000000000000000000000000000000000000000000000000000000000000073ffffffffffffffffffffffffffffffffffffffff16611aeb9092919063ffffffff16565b5f5f9054906101000a900473ffffffffffffffffffffffffffffffffffffffff1673ffffffffffffffffffffffffffffffffffffffff167fd696fd1bef0f360f61b28d861857ce2f1a99f670c2fb83cf00be924608c82a548260405161093e9190611fc8565b60405180910390a26001808190555050565b6e22d473030f116ddee9f6b43ac78ba381565b5f8160045f8573ffffffffffffffffffffffffffffffffffffffff1673ffffffffffffffffffffffffffffffffffffffff1681526020019081526020015f2054101580156109ee57508160055f8573ffffffffffffffffffffffffffffffffffffffff1673ffffffffffffffffffffffffffffffffffffffff1681526020019081526020015f205410155b905092915050565b60025f9054906101000a900473ffffffffffffffffffffffffffffffffffffffff1673ffffffffffffffffffffffffffffffffffffffff163373ffffffffffffffffffffffffffffffffffffffff1614610a7c576040517f82b4290000000000000000000000000000000000000000000000000000000000815260040160405180910390fd5b600260149054906101000a900460ff1615610ac3576040517f87f107c300000000000000000000000000000000000000000000000000000000815260040160405180910390fd5b5f8686905090508484905081141580610adf5750828290508114155b15610b16576040517f2c5211c600000000000000000000000000000000000000000000000000000000815260040160405180910390fd5b5f5f90505b81811015610ba257610b95888883818110610b3957610b38612702565b5b9050602002016020810190610b4e9190611f85565b878784818110610b6157610b60612702565b5b9050602002016020810190610b769190611f85565b868685818110610b8957610b88612702565b5b90506020020135611b71565b8080600101915050610b1b565b5050505050505050565b600260015403610be8576040517fab143c0600000000000000000000000000000000000000000000000000000000815260040160405180910390fd5b60026001819055505f8103610c29576040517f2c5211c600000000000000000000000000000000000000000000000000000000815260040160405180910390fd5b8060065f3373ffffffffffffffffffffffffffffffffffffffff1673ffffffffffffffffffffffffffffffffffffffff1681526020019081526020015f20541015610ca0576040517ff4d678b800000000000000000000000000000000000000000000000000000000815260040160405180910390fd5b8060065f3373ffffffffffffffffffffffffffffffffffffffff1673ffffffffffffffffffffffffffffffffffffffff1681526020019081526020015f205f828254610cec91906126cf565b92505081905550610d3e33827f000000000000000000000000000000000000000000000000000000000000000073ffffffffffffffffffffffffffffffffffffffff16611aeb9092919063ffffffff16565b3373ffffffffffffffffffffffffffffffffffffffff167f7eb87a60fe661d0348046bd26ceef116ec4bd3130580e0e9a39ee6fae4d4e91c82604051610d849190611fc8565b60405180910390a26001808190555050565b5f5f9054906101000a900473ffffffffffffffffffffffffffffffffffffffff1673ffffffffffffffffffffffffffffffffffffffff163373ffffffffffffffffffffffffffffffffffffffff1614610e1b576040517f82b4290000000000000000000000000000000000000000000000000000000000815260040160405180910390fd5b80600260146101000a81548160ff0219169083151502179055507f15b9505ab31c466d917c6ffcb14c137dbf5a6c95631422f969054109d276ade981604051610e64919061226f565b60405180910390a150565b5f5f9054906101000a900473ffffffffffffffffffffffffffffffffffffffff1681565b5f7f000000000000000000000000000000000000000000000000000000000000000073ffffffffffffffffffffffffffffffffffffffff166370a08231306040518263ffffffff1660e01b8152600401610eed9190611ff0565b602060405180830381865afa158015610f08573d5f5f3e3d5ffd5b505050506040513d601f19601f82011682018060405250810190610f2c9190612743565b905090565b5f5f9054906101000a900473ffffffffffffffffffffffffffffffffffffffff1673ffffffffffffffffffffffffffffffffffffffff163373ffffffffffffffffffffffffffffffffffffffff1614610fb6576040517f82b4290000000000000000000000000000000000000000000000000000000000815260040160405180910390fd5b5f73ffffffffffffffffffffffffffffffffffffffff168173ffffffffffffffffffffffffffffffffffffffff160361101b576040517fe6c4247b00000000000000000000000000000000000000000000000000000000815260040160405180910390fd5b8060025f6101000a81548173ffffffffffffffffffffffffffffffffffffffff021916908373ffffffffffffffffffffffffffffffffffffffff1602179055508073ffffffffffffffffffffffffffffffffffffffff167ff01fde40131396fd2f417fae830fea338256f1ecc896f2fa4f0354fd4554712c60405160405180910390a250565b6002600154036110dd576040517fab143c0600000000000000000000000000000000000000000000000000000000815260040160405180910390fd5b60026001819055505f8614806110f257505f85145b15611129576040517f2c5211c600000000000000000000000000000000000000000000000000000000815260040160405180910390fd5b3073ffffffffffffffffffffffffffffffffffffffff16835f0160208101906111529190611f85565b73ffffffffffffffffffffffffffffffffffffffff161461119f576040517fe6c4247b00000000000000000000000000000000000000000000000000000000815260040160405180910390fd5b7f000000000000000000000000000000000000000000000000000000000000000073ffffffffffffffffffffffffffffffffffffffff16845f015f0160208101906111ea9190611f85565b73ffffffffffffffffffffffffffffffffffffffff1614611237576040517fe6c4247b00000000000000000000000000000000000000000000000000000000815260040160405180910390fd5b85836020013514611274576040517f2c5211c600000000000000000000000000000000000000000000000000000000815260040160405180910390fd5b42846060013510156112b2576040517f2c5211c600000000000000000000000000000000000000000000000000000000815260040160405180910390fd5b6e22d473030f116ddee9f6b43ac78ba373ffffffffffffffffffffffffffffffffffffffff166330f28b7a85858a86866040518663ffffffff1660e01b81526004016113029594939291906128ee565b5f604051808303815f87803b158015611319575f5ffd5b505af115801561132b573d5f5f3e3d5ffd5b5050505061133a878787611993565b6001808190555050505050505050565b5f5f9054906101000a900473ffffffffffffffffffffffffffffffffffffffff1673ffffffffffffffffffffffffffffffffffffffff163373ffffffffffffffffffffffffffffffffffffffff16146113cf576040517f82b4290000000000000000000000000000000000000000000000000000000000815260040160405180910390fd5b6101f46bffffffffffffffffffffffff16816bffffffffffffffffffffffff161115611427576040517f2c5211c600000000000000000000000000000000000000000000000000000000815260040160405180910390fd5b8060035f6101000a8154816bffffffffffffffffffffffff02191690836bffffffffffffffffffffffff1602179055507f12d0978e09577356906c174508d8758fbe5e9cc762c7d94a64d74817039b937c81604051611486919061202f565b60405180910390a150565b600260149054906101000a900460ff1681565b6101f481565b6006602052805f5260405f205f915090505481565b6002600154036114fb576040517fab143c0600000000000000000000000000000000000000000000000000000000815260040160405180910390fd5b60026001819055505f810361153c576040517f2c5211c600000000000000000000000000000000000000000000000000000000815260040160405180910390fd5b8060045f3373ffffffffffffffffffffffffffffffffffffffff1673ffffffffffffffffffffffffffffffffffffffff1681526020019081526020015f205410156115b3576040517ff4d678b800000000000000000000000000000000000000000000000000000000815260040160405180910390fd5b8060045f3373ffffffffffffffffffffffffffffffffffffffff1673ffffffffffffffffffffffffffffffffffffffff1681526020019081526020015f205f8282546115ff91906126cf565b9250508190555061165133827f000000000000000000000000000000000000000000000000000000000000000073ffffffffffffffffffffffffffffffffffffffff16611aeb9092919063ffffffff16565b3373ffffffffffffffffffffffffffffffffffffffff167fc7c8ab309277169a63ed070feed2a9c7de84e71be9d50f6f06c898458562561c826040516116979190611fc8565b60405180910390a26001808190555050565b61271081565b5f8214806116bc57505f81145b156116f3576040517f2c5211c600000000000000000000000000000000000000000000000000000000815260040160405180910390fd5b6117403330847f000000000000000000000000000000000000000000000000000000000000000073ffffffffffffffffffffffffffffffffffffffff1661190a909392919063ffffffff16565b61174b338383611993565b5050565b5f5f9054906101000a900473ffffffffffffffffffffffffffffffffffffffff1673ffffffffffffffffffffffffffffffffffffffff163373ffffffffffffffffffffffffffffffffffffffff16146117d4576040517f82b4290000000000000000000000000000000000000000000000000000000000815260040160405180910390fd5b5f73ffffffffffffffffffffffffffffffffffffffff168173ffffffffffffffffffffffffffffffffffffffff1603611839576040517f82b4290000000000000000000000000000000000000000000000000000000000815260040160405180910390fd5b8073ffffffffffffffffffffffffffffffffffffffff165f5f9054906101000a900473ffffffffffffffffffffffffffffffffffffffff1673ffffffffffffffffffffffffffffffffffffffff167f8be0079c531659141344cd1fd0a4f28419497f9722a3daafe3b4186f6b6457e060405160405180910390a3805f5f6101000a81548173ffffffffffffffffffffffffffffffffffffffff021916908373ffffffffffffffffffffffffffffffffffffffff16021790555050565b6005602052805f5260405f205f915090505481565b61198d846323b872dd60e01b85858560405160240161192b9392919061293b565b604051602081830303815290604052907bffffffffffffffffffffffffffffffffffffffffffffffffffffffff19166020820180517bffffffffffffffffffffffffffffffffffffffffffffffffffffffff8381831617835250505050611e14565b50505050565b5f61271060035f9054906101000a90046bffffffffffffffffffffffff166bffffffffffffffffffffffff16846119ca9190612970565b6119d491906129de565b90505f81846119e391906126cf565b90508060045f8773ffffffffffffffffffffffffffffffffffffffff1673ffffffffffffffffffffffffffffffffffffffff1681526020019081526020015f205f828254611a319190612a0e565b925050819055508260055f8773ffffffffffffffffffffffffffffffffffffffff1673ffffffffffffffffffffffffffffffffffffffff1681526020019081526020015f20819055508160075f828254611a8b9190612a0e565b925050819055508473ffffffffffffffffffffffffffffffffffffffff167f50b9d4d5c0ed0ba931c6f5e13b311e5b720051445b37c49866665f2164d466ea828486604051611adc93929190612a41565b60405180910390a25050505050565b611b6c8363a9059cbb60e01b8484604051602401611b0a929190612a76565b604051602081830303815290604052907bffffffffffffffffffffffffffffffffffffffffffffffffffffffff19166020820180517bffffffffffffffffffffffffffffffffffffffffffffffffffffffff8381831617835250505050611e14565b505050565b5f810315611e0f575f73ffffffffffffffffffffffffffffffffffffffff168373ffffffffffffffffffffffffffffffffffffffff161480611bde57505f73ffffffffffffffffffffffffffffffffffffffff168273ffffffffffffffffffffffffffffffffffffffff16145b15611c15576040517fe6c4247b00000000000000000000000000000000000000000000000000000000815260040160405180910390fd5b8060045f8573ffffffffffffffffffffffffffffffffffffffff1673ffffffffffffffffffffffffffffffffffffffff1681526020019081526020015f20541015611c8c576040517ff4d678b800000000000000000000000000000000000000000000000000000000815260040160405180910390fd5b60055f8473ffffffffffffffffffffffffffffffffffffffff1673ffffffffffffffffffffffffffffffffffffffff1681526020019081526020015f2054811115611d03576040517ff1ff282600000000000000000000000000000000000000000000000000000000815260040160405180910390fd5b8060045f8573ffffffffffffffffffffffffffffffffffffffff1673ffffffffffffffffffffffffffffffffffffffff1681526020019081526020015f205f828254611d4f91906126cf565b925050819055508060065f8473ffffffffffffffffffffffffffffffffffffffff1673ffffffffffffffffffffffffffffffffffffffff1681526020019081526020015f205f828254611da29190612a0e565b925050819055508173ffffffffffffffffffffffffffffffffffffffff168373ffffffffffffffffffffffffffffffffffffffff167fca2ce982d63c71a419517d389df253be4b0d6f4da85fe1491e49608b139ee0be83604051611e069190611fc8565b60405180910390a35b505050565b5f5f8373ffffffffffffffffffffffffffffffffffffffff1683604051611e3b9190612aef565b5f604051808303815f865af19150503d805f8114611e74576040519150601f19603f3d011682016040523d82523d5f602084013e611e79565b606091505b509150915081611ec5575f815103611ebd576040517f70c9c18100000000000000000000000000000000000000000000000000000000815260040160405180910390fd5b805181602001fd5b5f8151118015611ee6575080806020019051810190611ee49190612b19565b155b15611f1d576040517f70c9c18100000000000000000000000000000000000000000000000000000000815260040160405180910390fd5b50505050565b5f5ffd5b5f5ffd5b5f73ffffffffffffffffffffffffffffffffffffffff82169050919050565b5f611f5482611f2b565b9050919050565b611f6481611f4a565b8114611f6e575f5ffd5b50565b5f81359050611f7f81611f5b565b92915050565b5f60208284031215611f9a57611f99611f23565b5b5f611fa784828501611f71565b91505092915050565b5f819050919050565b611fc281611fb0565b82525050565b5f602082019050611fdb5f830184611fb9565b92915050565b611fea81611f4a565b82525050565b5f6020820190506120035f830184611fe1565b92915050565b5f6bffffffffffffffffffffffff82169050919050565b61202981612009565b82525050565b5f6020820190506120425f830184612020565b92915050565b61205181611fb0565b811461205b575f5ffd5b50565b5f8135905061206c81612048565b92915050565b5f6020828403121561208757612086611f23565b5b5f6120948482850161205e565b91505092915050565b5f60ff82169050919050565b6120b28161209d565b81146120bc575f5ffd5b50565b5f813590506120cd816120a9565b92915050565b5f819050919050565b6120e5816120d3565b81146120ef575f5ffd5b50565b5f81359050612100816120dc565b92915050565b5f5f5f5f5f5f5f60e0888a03121561212157612120611f23565b5b5f61212e8a828b01611f71565b975050602061213f8a828b0161205e565b96505060406121508a828b0161205e565b95505060606121618a828b0161205e565b94505060806121728a828b016120bf565b93505060a06121838a828b016120f2565b92505060c06121948a828b016120f2565b91505092959891949750929550565b5f819050919050565b5f6121c66121c16121bc84611f2b565b6121a3565b611f2b565b9050919050565b5f6121d7826121ac565b9050919050565b5f6121e8826121cd565b9050919050565b6121f8816121de565b82525050565b5f6020820190506122115f8301846121ef565b92915050565b5f5f6040838503121561222d5761222c611f23565b5b5f61223a85828601611f71565b925050602061224b8582860161205e565b9150509250929050565b5f8115159050919050565b61226981612255565b82525050565b5f6020820190506122825f830184612260565b92915050565b5f5ffd5b5f5ffd5b5f5ffd5b5f5f83601f8401126122a9576122a8612288565b5b8235905067ffffffffffffffff8111156122c6576122c561228c565b5b6020830191508360208202830111156122e2576122e1612290565b5b9250929050565b5f5f83601f8401126122fe576122fd612288565b5b8235905067ffffffffffffffff81111561231b5761231a61228c565b5b60208301915083602082028301111561233757612336612290565b5b9250929050565b5f5f5f5f5f5f6060878903121561235857612357611f23565b5b5f87013567ffffffffffffffff81111561237557612374611f27565b5b61238189828a01612294565b9650965050602087013567ffffffffffffffff8111156123a4576123a3611f27565b5b6123b089828a01612294565b9450945050604087013567ffffffffffffffff8111156123d3576123d2611f27565b5b6123df89828a016122e9565b92509250509295509295509295565b6123f781612255565b8114612401575f5ffd5b50565b5f81359050612412816123ee565b92915050565b5f6020828403121561242d5761242c611f23565b5b5f61243a84828501612404565b91505092915050565b5f5ffd5b5f6080828403121561245c5761245b612443565b5b81905092915050565b5f6040828403121561247a57612479612443565b5b81905092915050565b5f5f83601f84011261249857612497612288565b5b8235905067ffffffffffffffff8111156124b5576124b461228c565b5b6020830191508360018202830111156124d1576124d0612290565b5b9250929050565b5f5f5f5f5f5f5f610140888a0312156124f4576124f3611f23565b5b5f6125018a828b01611f71565b97505060206125128a828b0161205e565b96505060406125238a828b0161205e565b95505060606125348a828b01612447565b94505060e06125458a828b01612465565b93505061012088013567ffffffffffffffff81111561256757612566611f27565b5b6125738a828b01612483565b925092505092959891949750929550565b61258d81612009565b8114612597575f5ffd5b50565b5f813590506125a881612584565b92915050565b5f602082840312156125c3576125c2611f23565b5b5f6125d08482850161259a565b91505092915050565b5f5f604083850312156125ef576125ee611f23565b5b5f6125fc8582860161205e565b925050602061260d8582860161205e565b9150509250929050565b6126208161209d565b82525050565b61262f816120d3565b82525050565b5f60e0820190506126485f83018a611fe1565b6126556020830189611fe1565b6126626040830188611fb9565b61266f6060830187611fb9565b61267c6080830186612617565b61268960a0830185612626565b61269660c0830184612626565b98975050505050505050565b7f4e487b71000000000000000000000000000000000000000000000000000000005f52601160045260245ffd5b5f6126d982611fb0565b91506126e483611fb0565b92508282039050818111156126fc576126fb6126a2565b5b92915050565b7f4e487b71000000000000000000000000000000000000000000000000000000005f52603260045260245ffd5b5f8151905061273d81612048565b92915050565b5f6020828403121561275857612757611f23565b5b5f6127658482850161272f565b91505092915050565b5f82905092915050565b5f6127866020840184611f71565b905092915050565b61279781611f4a565b82525050565b5f6127ab602084018461205e565b905092915050565b6127bc81611fb0565b82525050565b604082016127d25f830183612778565b6127de5f85018261278e565b506127ec602083018361279d565b6127f960208501826127b3565b50505050565b6080820161280f5f83018361276e565b61281b5f8501826127c2565b50612829604083018361279d565b61283660408501826127b3565b50612844606083018361279d565b61285160608501826127b3565b50505050565b604082016128675f830183612778565b6128735f85018261278e565b50612881602083018361279d565b61288e60208501826127b3565b50505050565b5f82825260208201905092915050565b828183375f83830152505050565b5f601f19601f8301169050919050565b5f6128cd8385612894565b93506128da8385846128a4565b6128e3836128b2565b840190509392505050565b5f610100820190506129025f8301886127ff565b61290f6080830187612857565b61291c60c0830186611fe1565b81810360e083015261292f8184866128c2565b90509695505050505050565b5f60608201905061294e5f830186611fe1565b61295b6020830185611fe1565b6129686040830184611fb9565b949350505050565b5f61297a82611fb0565b915061298583611fb0565b925082820261299381611fb0565b915082820484148315176129aa576129a96126a2565b5b5092915050565b7f4e487b71000000000000000000000000000000000000000000000000000000005f52601260045260245ffd5b5f6129e882611fb0565b91506129f383611fb0565b925082612a0357612a026129b1565b5b828204905092915050565b5f612a1882611fb0565b9150612a2383611fb0565b9250828201905080821115612a3b57612a3a6126a2565b5b92915050565b5f606082019050612a545f830186611fb9565b612a616020830185611fb9565b612a6e6040830184611fb9565b949350505050565b5f604082019050612a895f830185611fe1565b612a966020830184611fb9565b9392505050565b5f81519050919050565b5f81905092915050565b8281835e5f83830152505050565b5f612ac982612a9d565b612ad38185612aa7565b9350612ae3818560208601612ab1565b80840191505092915050565b5f612afa8284612abf565b915081905092915050565b5f81519050612b13816123ee565b92915050565b5f60208284031215612b2e57612b2d611f23565b5b5f612b3b84828501612b05565b9150509291505056fea264697066735822122008169355144336718a0a57c0980899965ebd3f7efa0881b4e78bd83c5cc0ab3064736f6c634300081e0033","linkReferences":{}},"methodIdentifiers":{"BPS_DENOMINATOR()":"e1a45218","MAX_FEE_BPS()":"d55be8c6","PERMIT2()":"6afdd850","batchSettle(address[],address[],uint256[])":"7a793afa","canUserSpend(address,uint256)":"7698bc53","deposit(uint256,uint256)":"e2bbb158","depositWithPermit(address,uint256,uint256,uint256,uint8,bytes32,bytes32)":"3d935d9e","depositWithPermit2(address,uint256,uint256,((address,uint256),uint256,uint256),(address,uint256),bytes)":"94cce9aa","feeBps()":"24a9d853","gateway()":"116191b6","owner()":"8da5cb5b","protocolFees()":"1ad8b03b","setFeeBps(uint96)":"b7f1564e","setGateway(address)":"90646b4a","setSettlementsPaused(bool)":"867fc1d8","setSpendingLimit(uint256)":"3c9607f6","settlementsPaused()":"cc1deaa0","totalReserves()":"8f840ddd","transferOwnership(address)":"f2fde38b","usdc()":"3e413bee","userDeposits(address)":"0ba36dcd","userSpendingLimit(address)":"f94e47fc","vendorPending(address)":"d71e5097","withdrawProtocolFees(uint256)":"4f449138","withdrawUser(uint256)":"dab70e3c","withdrawVendor(uint256)":"8674c426"},"id":0}